{
  "hex": "01000000022b7a5d0b09429a430ee2d465ff4ec1cec8080f66c59989ef03680dcb26a817460400000000ffffffff4d1bb7488ea38c16542cb80f505cc3d0d1757e3887ba25c8256619ec9ab1c5c00000000000ffffffff09eb3334030000000000001976a914ea9ab497c58159b8b0bf23becd179c076f8fbb9188ac78d0f4020000000000001976a9144820daabe97c3efcd3b34dfa51caf432d68d6a4d88ac541965340000000000001976a91495880e8c485ee28349d9885aa0fe448aa96e237488acb42f94000000000000001976a914a0d1579a51dbb6f26469944711d7e3f2f7a0b26088ac2a01fa020000000000001976a91444386bacdf3d7a353dabb2b334db9506791e83f288ac5c3be50b0000000000001976a9149f66566103e93e3cc29bebfed48450c3869e9a7688acc6fc91000000000000001976a91492ebcb796c918f5db19540726f91ca06a3b7640a88acd2b1c23c0000000000001976a9148806f0ae0b862006e39835d8cf91ac7f9d1c97d588ac6790f5020000000000001976a91418f82896bef63e67e125951bc464362eefdb00bb88ac0000000000000000021ee5573600000000bfd40100010000006a473044022051876acd9f0b716eaf383873db604cd7f39d659db2e909701dcbd655b469121e022036c165ab21c16865bab81696b41b3dcb85eb802867490b034f4cce2ac643b7640121026ea7725f46b9ab3931dd789907e80380eb91771cc681a1711c4468b71589d390ea20fe5300000000bad40100010000006a4730440220401007a7c4ba4b982babb08120b62f260484f61491e557f0a0d7d9c4484acf0e022041288a676750d421c63e09e7c11787a49bfec49e5490202220ddeb3406e2d3da01210371f6b9914081c10adfbac8fde9c9731c29fdb1bb235ba70f28cb0cf5f7268b2e",
  "txid": "9cde4a9685fa9e38ccf4da4bda1c1a123b3f2ed2c418f6bc128d7f5fbbee413d",
  "vin": [
    {
      "txid": "4617a826cb0d6803ef8999c5660f08c8cec14eff65d4e20e439a42090b5d7a2b",
      "vout": 4
    },
    {
      "txid": "c0c5b19aec196625c825ba87387e75d1d0c35c500fb82c54168ca38e48b71b4d",
      "vout": 0
    }
  ],
  "vout": [
    {
      "value": 53752811,
      "scriptPubKey": {
        "hex": "76a914ea9ab497c58159b8b0bf23becd179c076f8fbb9188ac",
        "address": "DsnMNwSYjwgks3c1kWVbaB6npxv8LXnGc8U"
      }
    },
    {
      "value": 49598584,
      "scriptPubKey": {
        "hex": "76a9144820daabe97c3efcd3b34dfa51caf432d68d6a4d88ac",
        "address": "DsXYHVzSPfo4jrYAkLJN7yFuAfY3mxA4JGy"
      }
    },
    {
      "value": 879040852,
      "scriptPubKey": {
        "hex": "76a91495880e8c485ee28349d9885aa0fe448aa96e237488ac",
        "address": "DsebZAQadwBurUCowGbsbgYTpMETHBibZLf"
      }
    },
    {
      "value": 9711540,
      "scriptPubKey": {
        "hex": "76a914a0d1579a51dbb6f26469944711d7e3f2f7a0b26088ac",
        "address": "DsfdEPUTpsCBJjjS8ovgp65uYwws18FQpas"
      }
    },
    {
      "value": 49938730,
      "scriptPubKey": {
        "hex": "76a91444386bacdf3d7a353dabb2b334db9506791e83f288ac",
        "address": "DsXBd2eWDHujo7wjYTsUwRw7wHoiYN5Ynhg"
      }
    },
    {
      "value": 199572316,
      "scriptPubKey": {
        "hex": "76a9149f66566103e93e3cc29bebfed48450c3869e9a7688ac",
        "address": "DsfVjXTdcisQ6j5c5ZrhLFfJC56ZMCCwkr2"
      }
    },
    {
      "value": 9567430,
      "scriptPubKey": {
        "hex": "76a91492ebcb796c918f5db19540726f91ca06a3b7640a88ac",
        "address": "DseMkckQQVxjEu6t2bTD65gW4EY2GiGuhNk"
      }
    },
    {
      "value": 1019392466,
      "scriptPubKey": {
        "hex": "76a9148806f0ae0b862006e39835d8cf91ac7f9d1c97d588ac",
        "address": "DsdN9hjHeY8FiDYdEpesfTy215sdN5Ly74v"
      }
    },
    {
      "value": 49647719,
      "scriptPubKey": {
        "hex": "76a91418f82896bef63e67e125951bc464362eefdb00bb88ac",
        "address": "DsTEvzPjXppZGYkLXZdZN16FwGaeMEjudpe"
      }
    }
  ]
}
