{
  "txid": "ac9438606258e38ab082cdd4757727a552785078299a5d7c69474814eb8e5893",
  "hash": "003c84ef13e493e9309b71570d61d75d44b5c9770083dbc689920126822dac6a",
  "version": 2,
  "size": 228,
  "vsize": 147,
  "weight": 585,
  "locktime": 1274,
  "vin": [
    {
      "txid": "3e34f307d7c23442c062c79e4cb5ce127f1574087515e5f3b938f3000f0063b8",
      "vout": 0,
      "scriptSig": {
        "asm": "",
        "hex": ""
      },
      "txinwitness": [
        "3044022033d19564809a859b05585fd32111ebbcb4d12e39b1db1ffcb8b4e9d8ecb1b3cd022036a18517d8537705d6affb55ceda5c5d4348023bbcde78e199006e9813b5399301",
        "02eca82d631c2b07caf80c99c8905892a5fbfbf0f3c994b04da9b082a55de0a997"
      ],
      "sequence": 4294967293
    }
  ],
  "vout": [
    {
      "value": 1.00000000,
      "n": 0,
      "scriptPubKey": {
        "asm": "OP_DUP OP_HASH160 9d14a6e7a67bde89ec28ace7e0e35b7ffc575c91 OP_EQUALVERIFY OP_CHECKSIG",
        "hex": "76a9149d14a6e7a67bde89ec28ace7e0e35b7ffc575c9188ac",
        "reqSigs": 1,
        "type": "pubkeyhash",
        "addresses": [
          "TQHmq6nY6s9NGKxQQw8taMkb1yZoSXJH3Z"
        ]
      }
    },
    {
      "value": 998.99999853,
      "n": 1,
      "scriptPubKey": {
        "asm": "OP_DUP OP_HASH160 1dbe53f4cc74b8c8cea3a51f045219ca450da9a4 OP_EQUALVERIFY OP_CHECKSIG",
        "hex": "76a9141dbe53f4cc74b8c8cea3a51f045219ca450da9a488ac",
        "reqSigs": 1,
        "type": "pubkeyhash",
        "addresses": [
          "TCgUbqgaNSDdAQBGFZkDsD9RoCbY59zMCX"
        ]
      }
    }
  ],
  "hex": "02000000000101b863000f00f338b9f3e515750874157f12ceb54c9ec762c04234c2d707f3343e0000000000fdffffff0200e1f505000000001976a9149d14a6e7a67bde89ec28ace7e0e35b7ffc575c9188ac6d068142170000001976a9141dbe53f4cc74b8c8cea3a51f045219ca450da9a488ac02473044022033d19564809a859b05585fd32111ebbcb4d12e39b1db1ffcb8b4e9d8ecb1b3cd022036a18517d8537705d6affb55ceda5c5d4348023bbcde78e199006e9813b53993012102eca82d631c2b07caf80c99c8905892a5fbfbf0f3c994b04da9b082a55de0a997fa040000"
}