{
    "hex": "01000000888f7e5d0c3f071399ff2c3dc8842bb79a03d08bf56cca6e4ca8a25609f47245a3730f6a5d010000006a473044022023667fca0d22ccd8e45db5676a1630412fdbd8001f04e19676adedd955b23055022046b1591fd05aef04e5adc4381762ad7c2e4dae6d52272773148aff3486081f8b012102de5ec2885007ad231aa49cd20dcd7ea41ed1661f1a7e4d4d7658c73ccbf3944effffffff6f06840e7135a5c6f6e7bd8bf0d6b98f55923d43a1b365f2690fffc174dfce56010000006b483045022100b3517951b0bc4e92cba444eca2f08d2e91c590191df73df6617aff0f5f996d9302203e835359f5092a374dd2f0bfa0c1b4c67347890afca25e9fe33f3760052fb4c7012102de5ec2885007ad231aa49cd20dcd7ea41ed1661f1a7e4d4d7658c73ccbf3944effffffff595eea963646c7767b513c1de0bc326340ef9dd34028f781a3348d16cd205eb8010000006b48304502210094029409f72712058412476b049cf1400b531153ff437762027abcc6af284cba022043341df1db15296ce10d37f8ef05a1b62c8d5b61c4ed2f26d38a934dbb1abf81012102de5ec2885007ad231aa49cd20dcd7ea41ed1661f1a7e4d4d7658c73ccbf3944effffffff59f269fc8640a2dd3125c1b473393c55c407a5624bc3da840d90343b016e55f5010000006a47304402205206a82ce88e07e5d1bc78d2f6dd2a275d802e5da38b7b698798ad2d1591b0fe02206c42b577f37ca790cc9d8b2974e63b7ab89083aa5d0f5e12e5156d011a373465012102de5ec2885007ad231aa49cd20dcd7ea41ed1661f1a7e4d4d7658c73ccbf3944effffffff5a9df970512b160d056741eef39bbaf9b95d69177b385351fdca5f9f45831dfe010000006b4830450221008633a5c6058733d9b57f683b2ded63096c242be2c644d4b3e15f68b61ecdd21502206f405507b86332defc63a57f8cd9d1d775f4a8435e4f539feb78fa79e000db89012102de5ec2885007ad231aa49cd20dcd7ea41ed1661f1a7e4d4d7658c73ccbf3944effffffff8d72b23422b66378a1fbe1c97384b87b2467a1f3ed19bc6fa9817f3224ab0f8c010000006b483045022100eca279f92f29a92829cd7ec3015bc4c1742a4c427a3a8cd9251d9db33988c5860220416e021d38da99f3ae9be13bd9ae5c68041d33c0e97f4864a81b448d6ba2a987012102de5ec2885007ad231aa49cd20dcd7ea41ed1661f1a7e4d4d7658c73ccbf3944effffffff9784ed03daec143dd0c1d822c57c037115950686cd39b6202c16a1fed43f56c6010000006b483045022100976d1f2727ac272b25e3632c57c719255030f3ecf583e2f0cc9b41424e8bea2802205c94f112b4ef38e723faba20e9b682dfe126f0391e45390f1dab55ea6071798c012102de5ec2885007ad231aa49cd20dcd7ea41ed1661f1a7e4d4d7658c73ccbf3944effffffff68fc1eb260a766532264ad98c2e44f89411bc919d39424b2f379d15ba697327d010000006a4730440220271a3221f942282ddd4d17618903ee926a4ab0849e7159c03d6a164f5f41bc1302203b35ba8954b0b1f70359aee35ab9d5990d89d4223d6a79a44c24da9ff7e8f8ed012102de5ec2885007ad231aa49cd20dcd7ea41ed1661f1a7e4d4d7658c73ccbf3944effffffff86f80262ccdf31fa472d7dab7181126e492f860860d37885f3db4c63bbef8261010000006b483045022100e86bf54159adaaa1b3d00130d45d79951164182ed1d59fdc74b8ec06103d6f4402202aafafc952dacfe80805dce865460863425cabe13dccb428409d22323b73cecb012102de5ec2885007ad231aa49cd20dcd7ea41ed1661f1a7e4d4d7658c73ccbf3944effffffff00cea115f93d4008eb658a868aa7c92a37421db4ca9cc374e823e513db6b6def000000006a473044022052698ccecf7eb6fc0870af0379f98166459f934190d7882f3650c7fceca399a20220279fb67f8b7dce8f36f8b6433d1010a0b66acc4cce80d25b0d1138b09f817436012103b25b90826798465c75209b69ac1be8fe1396260697a364f447d5588e35f90f93ffffffffd391985c187424848f53ab8e92b50939116bb4ba4b15b580cfe7252e277ab935010000006a47304402206145f0beb55898d606245f41c146b5c7d3c001f990ab37583d0e57e2ef8ea01802203e3aa0309f39c969848cd869d4aba50212c35f5271b323bf22ddb75046d1ad9a012102de5ec2885007ad231aa49cd20dcd7ea41ed1661f1a7e4d4d7658c73ccbf3944effffffffdc8435c53cc5ab353b10c7ed8431fa8b5d772f8611955f387ee999da8d85d272010000006b483045022100f2404aec415a34532c1731940af84a8d4a1db77f45023bc37665b85bde92c2b4022045a1b9cdfbdf20eac5534625c5b2488ac1979a53c5da4eb76b52f8247742cd19012102de5ec2885007ad231aa49cd20dcd7ea41ed1661f1a7e4d4d7658c73ccbf3944effffffff024ec50f00000000001976a914fe771c1032e0b51ac275be6fb5229b93f8f2fec888ac00e40b54020000001976a914ebf0afce12dec8e05b465c1b4307e4ba07deab4d88ac00000000",
    "txid": "49db983ff234ed0c5892756ea664f9048fc0a80ccdcd7b3002df76fbdd91f0ab",
    "version": 1,
    "time": 1568575368,
    "locktime": 0,
    "vin": [
        {
            "txid": "5d6a0f73a34572f40956a2a84c6eca6cf58bd0039ab72b84c83d2cff9913073f",
            "vout": 1,
            "scriptSig": {
                "asm": "3044022023667fca0d22ccd8e45db5676a1630412fdbd8001f04e19676adedd955b23055022046b1591fd05aef04e5adc4381762ad7c2e4dae6d52272773148aff3486081f8b01 02de5ec2885007ad231aa49cd20dcd7ea41ed1661f1a7e4d4d7658c73ccbf3944e",
                "hex": "473044022023667fca0d22ccd8e45db5676a1630412fdbd8001f04e19676adedd955b23055022046b1591fd05aef04e5adc4381762ad7c2e4dae6d52272773148aff3486081f8b012102de5ec2885007ad231aa49cd20dcd7ea41ed1661f1a7e4d4d7658c73ccbf3944e"
            },
            "sequence": 4294967295
        },
        {
            "txid": "56cedf74c1ff0f69f265b3a1433d92558fb9d6f08bbde7f6c6a535710e84066f",
            "vout": 1,
            "scriptSig": {
                "asm": "3045022100b3517951b0bc4e92cba444eca2f08d2e91c590191df73df6617aff0f5f996d9302203e835359f5092a374dd2f0bfa0c1b4c67347890afca25e9fe33f3760052fb4c701 02de5ec2885007ad231aa49cd20dcd7ea41ed1661f1a7e4d4d7658c73ccbf3944e",
                "hex": "483045022100b3517951b0bc4e92cba444eca2f08d2e91c590191df73df6617aff0f5f996d9302203e835359f5092a374dd2f0bfa0c1b4c67347890afca25e9fe33f3760052fb4c7012102de5ec2885007ad231aa49cd20dcd7ea41ed1661f1a7e4d4d7658c73ccbf3944e"
            },
            "sequence": 4294967295
        },
        {
            "txid": "b85e20cd168d34a381f72840d39def406332bce01d3c517b76c7463696ea5e59",
            "vout": 1,
            "scriptSig": {
                "asm": "304502210094029409f72712058412476b049cf1400b531153ff437762027abcc6af284cba022043341df1db15296ce10d37f8ef05a1b62c8d5b61c4ed2f26d38a934dbb1abf8101 02de5ec2885007ad231aa49cd20dcd7ea41ed1661f1a7e4d4d7658c73ccbf3944e",
                "hex": "48304502210094029409f72712058412476b049cf1400b531153ff437762027abcc6af284cba022043341df1db15296ce10d37f8ef05a1b62c8d5b61c4ed2f26d38a934dbb1abf81012102de5ec2885007ad231aa49cd20dcd7ea41ed1661f1a7e4d4d7658c73ccbf3944e"
            },
            "sequence": 4294967295
        },
        {
            "txid": "f5556e013b34900d84dac34b62a507c4553c3973b4c12531dda24086fc69f259",
            "vout": 1,
            "scriptSig": {
                "asm": "304402205206a82ce88e07e5d1bc78d2f6dd2a275d802e5da38b7b698798ad2d1591b0fe02206c42b577f37ca790cc9d8b2974e63b7ab89083aa5d0f5e12e5156d011a37346501 02de5ec2885007ad231aa49cd20dcd7ea41ed1661f1a7e4d4d7658c73ccbf3944e",
                "hex": "47304402205206a82ce88e07e5d1bc78d2f6dd2a275d802e5da38b7b698798ad2d1591b0fe02206c42b577f37ca790cc9d8b2974e63b7ab89083aa5d0f5e12e5156d011a373465012102de5ec2885007ad231aa49cd20dcd7ea41ed1661f1a7e4d4d7658c73ccbf3944e"
            },
            "sequence": 4294967295
        },
        {
            "txid": "fe1d83459f5fcafd5153387b17695db9f9ba9bf3ee4167050d162b5170f99d5a",
            "vout": 1,
            "scriptSig": {
                "asm": "30450221008633a5c6058733d9b57f683b2ded63096c242be2c644d4b3e15f68b61ecdd21502206f405507b86332defc63a57f8cd9d1d775f4a8435e4f539feb78fa79e000db8901 02de5ec2885007ad231aa49cd20dcd7ea41ed1661f1a7e4d4d7658c73ccbf3944e",
                "hex": "4830450221008633a5c6058733d9b57f683b2ded63096c242be2c644d4b3e15f68b61ecdd21502206f405507b86332defc63a57f8cd9d1d775f4a8435e4f539feb78fa79e000db89012102de5ec2885007ad231aa49cd20dcd7ea41ed1661f1a7e4d4d7658c73ccbf3944e"
            },
            "sequence": 4294967295
        },
        {
            "txid": "8c0fab24327f81a96fbc19edf3a167247bb88473c9e1fba17863b62234b2728d",
            "vout": 1,
            "scriptSig": {
                "asm": "3045022100eca279f92f29a92829cd7ec3015bc4c1742a4c427a3a8cd9251d9db33988c5860220416e021d38da99f3ae9be13bd9ae5c68041d33c0e97f4864a81b448d6ba2a98701 02de5ec2885007ad231aa49cd20dcd7ea41ed1661f1a7e4d4d7658c73ccbf3944e",
                "hex": "483045022100eca279f92f29a92829cd7ec3015bc4c1742a4c427a3a8cd9251d9db33988c5860220416e021d38da99f3ae9be13bd9ae5c68041d33c0e97f4864a81b448d6ba2a987012102de5ec2885007ad231aa49cd20dcd7ea41ed1661f1a7e4d4d7658c73ccbf3944e"
            },
            "sequence": 4294967295
        },
        {
            "txid": "c6563fd4fea1162c20b639cd8606951571037cc522d8c1d03d14ecda03ed8497",
            "vout": 1,
            "scriptSig": {
                "asm": "3045022100976d1f2727ac272b25e3632c57c719255030f3ecf583e2f0cc9b41424e8bea2802205c94f112b4ef38e723faba20e9b682dfe126f0391e45390f1dab55ea6071798c01 02de5ec2885007ad231aa49cd20dcd7ea41ed1661f1a7e4d4d7658c73ccbf3944e",
                "hex": "483045022100976d1f2727ac272b25e3632c57c719255030f3ecf583e2f0cc9b41424e8bea2802205c94f112b4ef38e723faba20e9b682dfe126f0391e45390f1dab55ea6071798c012102de5ec2885007ad231aa49cd20dcd7ea41ed1661f1a7e4d4d7658c73ccbf3944e"
            },
            "sequence": 4294967295
        },
        {
            "txid": "7d3297a65bd179f3b22494d319c91b41894fe4c298ad64225366a760b21efc68",
            "vout": 1,
            "scriptSig": {
                "asm": "30440220271a3221f942282ddd4d17618903ee926a4ab0849e7159c03d6a164f5f41bc1302203b35ba8954b0b1f70359aee35ab9d5990d89d4223d6a79a44c24da9ff7e8f8ed01 02de5ec2885007ad231aa49cd20dcd7ea41ed1661f1a7e4d4d7658c73ccbf3944e",
                "hex": "4730440220271a3221f942282ddd4d17618903ee926a4ab0849e7159c03d6a164f5f41bc1302203b35ba8954b0b1f70359aee35ab9d5990d89d4223d6a79a44c24da9ff7e8f8ed012102de5ec2885007ad231aa49cd20dcd7ea41ed1661f1a7e4d4d7658c73ccbf3944e"
            },
            "sequence": 4294967295
        },
        {
            "txid": "6182efbb634cdbf38578d36008862f496e128171ab7d2d47fa31dfcc6202f886",
            "vout": 1,
            "scriptSig": {
                "asm": "3045022100e86bf54159adaaa1b3d00130d45d79951164182ed1d59fdc74b8ec06103d6f4402202aafafc952dacfe80805dce865460863425cabe13dccb428409d22323b73cecb01 02de5ec2885007ad231aa49cd20dcd7ea41ed1661f1a7e4d4d7658c73ccbf3944e",
                "hex": "483045022100e86bf54159adaaa1b3d00130d45d79951164182ed1d59fdc74b8ec06103d6f4402202aafafc952dacfe80805dce865460863425cabe13dccb428409d22323b73cecb012102de5ec2885007ad231aa49cd20dcd7ea41ed1661f1a7e4d4d7658c73ccbf3944e"
            },
            "sequence": 4294967295
        },
        {
            "txid": "ef6d6bdb13e523e874c39ccab41d42372ac9a78a868a65eb08403df915a1ce00",
            "vout": 0,
            "scriptSig": {
                "asm": "3044022052698ccecf7eb6fc0870af0379f98166459f934190d7882f3650c7fceca399a20220279fb67f8b7dce8f36f8b6433d1010a0b66acc4cce80d25b0d1138b09f81743601 03b25b90826798465c75209b69ac1be8fe1396260697a364f447d5588e35f90f93",
                "hex": "473044022052698ccecf7eb6fc0870af0379f98166459f934190d7882f3650c7fceca399a20220279fb67f8b7dce8f36f8b6433d1010a0b66acc4cce80d25b0d1138b09f817436012103b25b90826798465c75209b69ac1be8fe1396260697a364f447d5588e35f90f93"
            },
            "sequence": 4294967295
        },
        {
            "txid": "35b97a272e25e7cf80b5154bbab46b113909b5928eab538f842474185c9891d3",
            "vout": 1,
            "scriptSig": {
                "asm": "304402206145f0beb55898d606245f41c146b5c7d3c001f990ab37583d0e57e2ef8ea01802203e3aa0309f39c969848cd869d4aba50212c35f5271b323bf22ddb75046d1ad9a01 02de5ec2885007ad231aa49cd20dcd7ea41ed1661f1a7e4d4d7658c73ccbf3944e",
                "hex": "47304402206145f0beb55898d606245f41c146b5c7d3c001f990ab37583d0e57e2ef8ea01802203e3aa0309f39c969848cd869d4aba50212c35f5271b323bf22ddb75046d1ad9a012102de5ec2885007ad231aa49cd20dcd7ea41ed1661f1a7e4d4d7658c73ccbf3944e"
            },
            "sequence": 4294967295
        },
        {
            "txid": "72d2858dda99e97e385f9511862f775d8bfa3184edc7103b35abc53cc53584dc",
            "vout": 1,
            "scriptSig": {
                "asm": "3045022100f2404aec415a34532c1731940af84a8d4a1db77f45023bc37665b85bde92c2b4022045a1b9cdfbdf20eac5534625c5b2488ac1979a53c5da4eb76b52f8247742cd1901 02de5ec2885007ad231aa49cd20dcd7ea41ed1661f1a7e4d4d7658c73ccbf3944e",
                "hex": "483045022100f2404aec415a34532c1731940af84a8d4a1db77f45023bc37665b85bde92c2b4022045a1b9cdfbdf20eac5534625c5b2488ac1979a53c5da4eb76b52f8247742cd19012102de5ec2885007ad231aa49cd20dcd7ea41ed1661f1a7e4d4d7658c73ccbf3944e"
            },
            "sequence": 4294967295
        }
    ],
    "vout": [
        {
            "value": 1033550,
            "n": 0,
            "scriptPubKey": {
                "asm": "OP_DUP OP_HASH160 fe771c1032e0b51ac275be6fb5229b93f8f2fec8 OP_EQUALVERIFY OP_CHECKSIG",
                "hex": "76a914fe771c1032e0b51ac275be6fb5229b93f8f2fec888ac",
                "reqSigs": 1,
                "type": "pubkeyhash",
                "addresses": [
                    "Gh3QjjWRLU111CHgiTYNmSZsfoqK7iNfCM"
                ]
            }
        },
        {
            "value": 10000000000,
            "n": 1,
            "scriptPubKey": {
                "asm": "OP_DUP OP_HASH160 ebf0afce12dec8e05b465c1b4307e4ba07deab4d OP_EQUALVERIFY OP_CHECKSIG",
                "hex": "76a914ebf0afce12dec8e05b465c1b4307e4ba07deab4d88ac",
                "reqSigs": 1,
                "type": "pubkeyhash",
                "addresses": [
                    "GfMTYR2RoMaUYvrV5rgTmubuNGvEbFLCpF"
                ]
            }
        }
    ],
    "blockhash": "b3d9133c220e59f52cb0e0e2ffe030dcc57a1e2ed6d0def46b9c8531015106c3",
    "confirmations": 2882,
    "blocktime": 1568575555
}