{
  "hex": "01000000bf8dba5901ad953de2a7b9be5cb02c6dc23896084a14d322cf4a8cf592ec870b28ae64ef8b0100000048473044022041cb4e0f16e5f3461840e6373b83cede39574d438fc6e7fd118812203f3eaabb022042649cfe28aa5287ece0380d14aefa13d3cfa80939c55d3d6666f7b937c45f1701ffffffff0a20120a00000000001976a91474b358aa223098ceb7cad687c4d7b3b586d451a988ac20120a00000000001976a914c5c3b55e10f1c1380a0ed77c483c77c7ee8bf6a188ac20e3f600000000001976a9146a6ad28c0c7303cdcad30e8a0927b4fe7b61532388ac20120a00000000001976a9148aac9e438c2c3583b4dabf762cf3d293ec93e08888ac20120a00000000001976a914a4d3b442a56f173858ede1a5bb18cd6ce3b0555888ac20120a00000000001976a91495b0fb559a12733c34a3ab533a824675656b10a488ac20120a00000000001976a91449107b9bbc1746078b08be8073817b0a3c180d3988ac20120a00000000001976a914cc5ebd1c5854bcbf36e2b6d25a551d58c7a3d55888ac20120a00000000001976a91466bd59b9f305b9eaab9b7fe9404f465b4e63a7bf88ac20120a00000000001976a914a0f89dc2c36fb5f60c750ff8c8353d7dd680c19188ac00000000",
  "txid": "937bba4fd2c9f77250ca10c80915a874b47fd60204be3993540eb9f1a459f2e0",
  "version": 1,
  "time": 1505398874,
  "locktime": 0,
  "vin": [
    {
      "txid": "8bef64ae280b87ec92f58c4acf22d3144a089638c26d2cb05cbeb9a7e23d95ad",
      "vout": 1,
      "scriptSig": {
        "asm": "3044022041cb4e0f16e5f3461840e6373b83cede39574d438fc6e7fd118812203f3eaabb022042649cfe28aa5287ece0380d14aefa13d3cfa80939c55d3d6666f7b937c45f1701",
        "hex": "473044022041cb4e0f16e5f3461840e6373b83cede39574d438fc6e7fd118812203f3eaabb022042649cfe28aa5287ece0380d14aefa13d3cfa80939c55d3d6666f7b937c45f1701"
      },
      "sequence": 4294967295
    }
  ],
  "vout": [
    {
      "value": 660000,
      "n": 0,
      "scriptPubKey": {
        "asm": "OP_DUP OP_HASH160 74b358aa223098ceb7cad687c4d7b3b586d451a9 OP_EQUALVERIFY OP_CHECKSIG",
        "hex": "76a91474b358aa223098ceb7cad687c4d7b3b586d451a988ac",
        "reqSigs": 1,
        "type": "pubkeyhash",
        "address": "PKEEPRnAZCyjC48a4SYH4u4YiPnqt1qoud"
      }
    },
    {
      "value": 660000,
      "n": 1,
      "scriptPubKey": {
        "asm": "OP_DUP OP_HASH160 c5c3b55e10f1c1380a0ed77c483c77c7ee8bf6a1 OP_EQUALVERIFY OP_CHECKSIG",
        "hex": "76a914c5c3b55e10f1c1380a0ed77c483c77c7ee8bf6a188ac",
        "reqSigs": 1,
        "type": "pubkeyhash",
        "address": "PScript9dhNxV5xHGwwcjknh9sxe6s4tVX"
      }
    },
    {
      "value": 16180000,
      "n": 2,
      "scriptPubKey": {
        "asm": "OP_DUP OP_HASH160 6a6ad28c0c7303cdcad30e8a0927b4fe7b615323 OP_EQUALVERIFY OP_CHECKSIG",
        "hex": "76a9146a6ad28c0c7303cdcad30e8a0927b4fe7b61532388ac",
        "reqSigs": 1,
        "type": "pubkeyhash",
        "address": "PJHrkThFcy83r7Qj4znvYtzKRv1ExFPyrk"
      }
    },
    {
      "value": 660000,
      "n": 3,
      "scriptPubKey": {
        "asm": "OP_DUP OP_HASH160 8aac9e438c2c3583b4dabf762cf3d293ec93e088 OP_EQUALVERIFY OP_CHECKSIG",
        "hex": "76a9148aac9e438c2c3583b4dabf762cf3d293ec93e08888ac",
        "reqSigs": 1,
        "type": "pubkeyhash",
        "address": "PMERCAoRC3niFtqr4Mzw1skUi5nvVMhJic"
      }
    },
    {
      "value": 660000,
      "n": 4,
      "scriptPubKey": {
        "asm": "OP_DUP OP_HASH160 a4d3b442a56f173858ede1a5bb18cd6ce3b05558 OP_EQUALVERIFY OP_CHECKSIG",
        "hex": "76a914a4d3b442a56f173858ede1a5bb18cd6ce3b0555888ac",
        "reqSigs": 1,
        "type": "pubkeyhash",
        "address": "PPchatrw5hV1y3JUU2kxyL4LQccprbp8FX"
      }
    },
    {
      "value": 660000,
      "n": 5,
      "scriptPubKey": {
        "asm": "OP_DUP OP_HASH160 95b0fb559a12733c34a3ab533a824675656b10a4 OP_EQUALVERIFY OP_CHECKSIG",
        "hex": "76a91495b0fb559a12733c34a3ab533a824675656b10a488ac",
        "reqSigs": 1,
        "type": "pubkeyhash",
        "address": "PNEfrTw3ngSsNifCAjwB3gXnYz5U48MnSx"
      }
    },
    {
      "value": 660000,
      "n": 6,
      "scriptPubKey": {
        "asm": "OP_DUP OP_HASH160 49107b9bbc1746078b08be8073817b0a3c180d39 OP_EQUALVERIFY OP_CHECKSIG",
        "hex": "76a91449107b9bbc1746078b08be8073817b0a3c180d3988ac",
        "reqSigs": 1,
        "type": "pubkeyhash",
        "address": "PFFWEDzpA3pvHrmtSwZmWzXUDu9QEWnRFT"
      }
    },
    {
      "value": 660000,
      "n": 7,
      "scriptPubKey": {
        "asm": "OP_DUP OP_HASH160 cc5ebd1c5854bcbf36e2b6d25a551d58c7a3d558 OP_EQUALVERIFY OP_CHECKSIG",
        "hex": "76a914cc5ebd1c5854bcbf36e2b6d25a551d58c7a3d55888ac",
        "reqSigs": 1,
        "type": "pubkeyhash",
        "address": "PTDnVfgcDVk417rLXrokC3nLj44tFZ3Hyw"
      }
    },
    {
      "value": 660000,
      "n": 8,
      "scriptPubKey": {
        "asm": "OP_DUP OP_HASH160 66bd59b9f305b9eaab9b7fe9404f465b4e63a7bf OP_EQUALVERIFY OP_CHECKSIG",
        "hex": "76a91466bd59b9f305b9eaab9b7fe9404f465b4e63a7bf88ac",
        "reqSigs": 1,
        "type": "pubkeyhash",
        "address": "PHxQuqqL7FJ3P7VvdaziqEpKPXLDUJZco3"
      }
    },
    {
      "value": 660000,
      "n": 9,
      "scriptPubKey": {
        "asm": "OP_DUP OP_HASH160 a0f89dc2c36fb5f60c750ff8c8353d7dd680c191 OP_EQUALVERIFY OP_CHECKSIG",
        "hex": "76a914a0f89dc2c36fb5f60c750ff8c8353d7dd680c19188ac",
        "reqSigs": 1,
        "type": "pubkeyhash",
        "address": "PPGK6psEaCMKz6xZGCSxKsiZPV7gWg8mYf"
      }
    }
  ],
  "blockhash": "0000000000000000781decfe53795f55184690bbf9cb38bd06f38aeccd2dc924",
  "confirmations": 86758,
  "blocktime": 1505398874
}