{
    "hex": "010000008180445c041eb7310aeb34007c9ff9b77f8e6c9c249d4c768420a9049a9f655f4c338efee9020000004a49304602210090e5f7b3854e15cdde7b2789664a08abb4a5eedc6bd65f0b0bfc5ca91264854c022100953a2af22e65e01816538d472c34ba0eaeae92bafb36d1d3e2d6d8ffb9dde77101ffffffff67f396d952037b2137bc1b55ee3d963bc0e021e9188db2c0a1b276de34f9b186000000006b483045022100b233a9b5bdb8db9c24d8d8700734401e24b8fd0aae5f2ec71d0dac4c2a3a016702205629df3019857e57e7650dadd5cee1e7bde6b10e1ad6c37da2e2cce2fdcfc76d0121037de980afe82c0d793a7ee3e3d38e77c84de106aea444df2dea264f288baf3210ffffffffa33a908fb4b6be270b259c0fa356dcbddcbff2486480adb13000a6a7f92a21a2000000006b483045022100fad26408f47fec16cc122e6cbfe1b27df8eb655fa2998dc867858729b634ec8b02207f130dec8a341cb74b475f6bc8818828807bec6163d280d6f27a2acef84120e101210238de6010e22dd2916b24f86da16a98e41cab04e05e307172b7c8d2895a837172ffffffffe340bbf6948f50ad242c06c3e9eb559620b04a9056247903b6a5ae63387d41ec000000006b483045022100b5f951f7a9ca6d7beeba4eb4ae3cb07e3ab0c0dea5e060c5c2a608f37fef085702202acb69110119732cf6b0ae0feb6058f146617b210a3a065701715dae45ee5df10121035017348e9fbadf0a5478ee1831467f34c96b8d40a0cefe3bd657621bf404f810ffffffff0200e1f505000000001976a91433dbea08eb74959027235a4fb1b714621bd4219488acf8b50100000000001976a9144ed1ce7f28aad0f1568c434d0cdbedef2410df2788ac00000000",
    "txid": "394897b22d5edca2209279148737f7ce6b2d5aa7818b49973fef1bf931dad687",
    "version": 1,
    "time": 1547994712,
    "locktime": 0,
    "vin": [
      {
        "txid": "e9fe8e334c5f659f9a04a92084764c9d249c6c8e7fb7f99f7c0034eb0a31b71e",
        "vout": 2,
        "scriptSig": {
          "asm": "304602210090e5f7b3854e15cdde7b2789664a08abb4a5eedc6bd65f0b0bfc5ca91264854c022100953a2af22e65e01816538d472c34ba0eaeae92bafb36d1d3e2d6d8ffb9dde77101",
          "hex": "49304602210090e5f7b3854e15cdde7b2789664a08abb4a5eedc6bd65f0b0bfc5ca91264854c022100953a2af22e65e01816538d472c34ba0eaeae92bafb36d1d3e2d6d8ffb9dde77101"
        },
        "sequence": 4294967295
      },
      {
        "txid": "86b1f934de76b2a1c0b28d18e921e0c03b963dee551bbc37217b0352d996f367",
        "vout": 0,
        "scriptSig": {
          "asm": "3045022100b233a9b5bdb8db9c24d8d8700734401e24b8fd0aae5f2ec71d0dac4c2a3a016702205629df3019857e57e7650dadd5cee1e7bde6b10e1ad6c37da2e2cce2fdcfc76d01 037de980afe82c0d793a7ee3e3d38e77c84de106aea444df2dea264f288baf3210",
          "hex": "483045022100b233a9b5bdb8db9c24d8d8700734401e24b8fd0aae5f2ec71d0dac4c2a3a016702205629df3019857e57e7650dadd5cee1e7bde6b10e1ad6c37da2e2cce2fdcfc76d0121037de980afe82c0d793a7ee3e3d38e77c84de106aea444df2dea264f288baf3210"
        },
        "sequence": 4294967295
      },
      {
        "txid": "a2212af9a7a60030b1ad806448f2bfdcbddc56a30f9c250b27beb6b48f903aa3",
        "vout": 0,
        "scriptSig": {
          "asm": "3045022100fad26408f47fec16cc122e6cbfe1b27df8eb655fa2998dc867858729b634ec8b02207f130dec8a341cb74b475f6bc8818828807bec6163d280d6f27a2acef84120e101 0238de6010e22dd2916b24f86da16a98e41cab04e05e307172b7c8d2895a837172",
          "hex": "483045022100fad26408f47fec16cc122e6cbfe1b27df8eb655fa2998dc867858729b634ec8b02207f130dec8a341cb74b475f6bc8818828807bec6163d280d6f27a2acef84120e101210238de6010e22dd2916b24f86da16a98e41cab04e05e307172b7c8d2895a837172"
        },
        "sequence": 4294967295
      },
      {
        "txid": "ec417d3863aea5b603792456904ab0209655ebe9c3062c24ad508f94f6bb40e3",
        "vout": 0,
        "scriptSig": {
          "asm": "3045022100b5f951f7a9ca6d7beeba4eb4ae3cb07e3ab0c0dea5e060c5c2a608f37fef085702202acb69110119732cf6b0ae0feb6058f146617b210a3a065701715dae45ee5df101 035017348e9fbadf0a5478ee1831467f34c96b8d40a0cefe3bd657621bf404f810",
          "hex": "483045022100b5f951f7a9ca6d7beeba4eb4ae3cb07e3ab0c0dea5e060c5c2a608f37fef085702202acb69110119732cf6b0ae0feb6058f146617b210a3a065701715dae45ee5df10121035017348e9fbadf0a5478ee1831467f34c96b8d40a0cefe3bd657621bf404f810"
        },
        "sequence": 4294967295
      }
    ],
    "vout": [
      {
        "value": 100000000,
        "n": 0,
        "scriptPubKey": {
          "asm": "OP_DUP OP_HASH160 33dbea08eb74959027235a4fb1b714621bd42194 OP_EQUALVERIFY OP_CHECKSIG",
          "hex": "76a91433dbea08eb74959027235a4fb1b714621bd4219488ac",
          "reqSigs": 1,
          "type": "pubkeyhash",
          "address": "mkFACk6HNooUKwfptBRs2UHDKuL3Vn3V2A"
        }
      },
      {
        "value": 112120,
        "n": 1,
        "scriptPubKey": {
          "asm": "OP_DUP OP_HASH160 4ed1ce7f28aad0f1568c434d0cdbedef2410df27 OP_EQUALVERIFY OP_CHECKSIG",
          "hex": "76a9144ed1ce7f28aad0f1568c434d0cdbedef2410df2788ac",
          "reqSigs": 1,
          "type": "pubkeyhash",
          "address": "mnhiLdtdodHAzggkjBb5VdqH8WhdSmuozE"
        }
      }
    ],
    "blockhash": "313cc0ffa998773595b68210e100b56d31c4d555ff807dcf7e145e31013c533f",
    "confirmations": 4,
    "blocktime": 1547994712
  }