{
  "hex": "01000000ff1144500115f754e065609bf45b0ff796b3be0e4b91357edebae2f3d1a3ced332b6c52dd10100000049483045022001f3652da344fa1f25a4da28aa0b5f727f58c5182a42931a6433d1995d089ba9022100b9420da34863c0c7ed27c6bdc916c045485a0d2ad3049cb989adda728c4f6d7d01ffffffff03000000000000000000a097223c00000000232102ed1b78f2dd015603be7d7a108ea26c1e9535f98a4e3c8ddd7dc6291e378009b0aca097223c00000000232102ed1b78f2dd015603be7d7a108ea26c1e9535f98a4e3c8ddd7dc6291e378009b0ac00000000",
  "txid": "575eb33679da3981cfb5ed35f48a02a0b6492ceb30dc75ccc307e0e8ee1d3ca1",
  "version": 1,
  "time": 1346638335,
  "locktime": 0,
  "vin": [
    {
      "txid": "d12dc5b632d3cea3d1f3e2bade7e35914b0ebeb396f70f5bf49b6065e054f715",
      "vout": 1,
      "scriptSig": {
        "asm": "3045022001f3652da344fa1f25a4da28aa0b5f727f58c5182a42931a6433d1995d089ba9022100b9420da34863c0c7ed27c6bdc916c045485a0d2ad3049cb989adda728c4f6d7d01",
        "hex": "483045022001f3652da344fa1f25a4da28aa0b5f727f58c5182a42931a6433d1995d089ba9022100b9420da34863c0c7ed27c6bdc916c045485a0d2ad3049cb989adda728c4f6d7d01"
      },
      "sequence": 4294967295
    }
  ],
  "vout": [
    {
      "value": 0,
      "n": 0,
      "scriptPubKey": {
        "asm": "",
        "hex": "",
        "type": "nonstandard"
      }
    },
    {
      "value": 1008.9,
      "n": 1,
      "scriptPubKey": {
        "asm": "02ed1b78f2dd015603be7d7a108ea26c1e9535f98a4e3c8ddd7dc6291e378009b0 OP_CHECKSIG",
        "hex": "2102ed1b78f2dd015603be7d7a108ea26c1e9535f98a4e3c8ddd7dc6291e378009b0ac",
        "reqSigs": 1,
        "type": "pubkey",
        "addresses": [
          "mk3sxYdEzc8911eSD47b61ro2pNjJ46eFX"
        ]
      }
    },
    {
      "value": 1008.9,
      "n": 2,
      "scriptPubKey": {
        "asm": "02ed1b78f2dd015603be7d7a108ea26c1e9535f98a4e3c8ddd7dc6291e378009b0 OP_CHECKSIG",
        "hex": "2102ed1b78f2dd015603be7d7a108ea26c1e9535f98a4e3c8ddd7dc6291e378009b0ac",
        "reqSigs": 1,
        "type": "pubkey",
        "addresses": [
          "mk3sxYdEzc8911eSD47b61ro2pNjJ46eFX"
        ]
      }
    }
  ],
  "blockhash": "f0e6edf02c1fda098144756cf466936977a553fa18739325cd4af36d489e8632",
  "confirmations": 380794,
  "blocktime": 1346638335
}