{
    "hex": "020000009deeae5902b1783ecef75a2b9ee5c712f24f1894af227bfd5c8537e2726825bdd671447c05000000004a493046022100e2e5ded327e142219d1b6a710ab7cc300184777abf78335d5239d32eff727a5a022100e1a3369edcd11bffff622fef9c3cc9806aff8f391c1e44d16f0d71df85eebdfe01ffffffff1aeecc1e29402d087bba234f0c89a26c4b276c96ea159bb24cc933388fb78296000000004a493046022100e4b0761022735fc42b5ad49a7ad4db1aaa4a057e43c829eb46277d8feb2b9d4e022100f8720e90b932419c807ea7186b56dceed478b165791bf97f794cbc560c9d6e5b01ffffffff0200000000000000000000a3e111000000002321030d339295b94bdc8c9e49ef25e0040c00bf4af06dd1695e0781ac11e2885fa4b6ac0000000000",
    "txid": "4808b584d0b171ac2f8eb20b8b9e429f29a03ee8299c10bb810dcc8df6346747",
    "vin": [
        {
            "txid": "057c4471d6bd256872e237855cfd7b22af94184ff212c7e59e2b5af7ce3e78b1",
            "vout": 0
        },
        {
            "txid": "9682b78f3833c94cb29b15ea966c274b6ca2890c4f23ba7b082d40291eccee1a",
            "vout": 0
        }
    ],
    "vout": [
        {
            "value": 0,
            "scriptPubKey": {
                "hex": ""
            }
        },
        {
            "value": 30000000,
            "scriptPubKey": {
                "hex": "21030d339295b94bdc8c9e49ef25e0040c00bf4af06dd1695e0781ac11e2885fa4b6ac",
                "address": "Tc7PRkmYVa5DoGW2P55suebvT6TYK8K7BW"
            }
        }
    ]
}
