{
  "txid": "a32f38a463b75f2cb9955f5660063e7888f9120b40f27312b65e53fad6a226fd",
  "hash": "a32f38a463b75f2cb9955f5660063e7888f9120b40f27312b65e53fad6a226fd",
  "version": 2,
  "size": 240,
  "vsize": 240,
  "weight": 960,
  "locktime": 0,
  "vin": [
    {
      "txid": "c87eb7b9c71146a18f8ebaea93b74bfeb4795b265f151ba5a1e62ef32017bc34",
      "vout": 0,
      "scriptSig": {
        "asm": "3045022100df2c9fdfa19e145a3d1f3b995e2925e6270f02dd13a9d5e79edc0bf7841517d40220722d8c694a21890bb24b82530f7e553371b9123d1e0e8c1ad818fe87c53e3cbb[ALL] 03a2bfae3cc2b43c7ac5e8ae402e1552b9edca7a2ff73ac1950ca52dae73791e95",
        "hex": "483045022100df2c9fdfa19e145a3d1f3b995e2925e6270f02dd13a9d5e79edc0bf7841517d40220722d8c694a21890bb24b82530f7e553371b9123d1e0e8c1ad818fe87c53e3cbb012103a2bfae3cc2b43c7ac5e8ae402e1552b9edca7a2ff73ac1950ca52dae73791e95"
      },
      "sequence": 4294967294
    }
  ],
  "vout": [
    {
      "value": 1996928100,
      "n": 0,
      "scriptPubKey": {
        "asm": "OP_DUP OP_HASH160 5026b54aec9036aaf02473481356acb3fe45846a OP_EQUALVERIFY OP_CHECKSIG",
        "hex": "76a9145026b54aec9036aaf02473481356acb3fe45846a88ac",
        "reqSigs": 1,
        "type": "pubkeyhash",
        "addresses": [
          "CPmgzsvaWeSNvXd5CNfzSLnX2ymjJ7jwtw"
        ]
      }
    },
    {
      "value": 1000000,
      "n": 1,
      "scriptPubKey": {
        "nameOp": {
          "op": "name_register",
          "name": "p/domob",
          "name_encoding": "utf8",
          "value": "{}",
          "value_encoding": "ascii"
        },
        "asm": "OP_NAME_REGISTER 702f646f6d6f62 32123 OP_2DROP OP_DROP OP_DUP OP_HASH160 eed2f5ecba300e6137c3a966d60cab012b490e01 OP_EQUALVERIFY OP_CHECKSIG",
        "hex": "5107702f646f6d6f62027b7d6d7576a914eed2f5ecba300e6137c3a966d60cab012b490e0188ac",
        "reqSigs": 1,
        "type": "pubkeyhash",
        "addresses": [
          "CeEg7VvAJ6rtz7MQ9sbkmEEb4zxRbSU4JT"
        ]
      }
    }
  ],
  "hex": "020000000134bc1720f32ee6a1a51b155f265b79b4fe4bb793eaba8e8fa14611c7b9b77ec8000000006b483045022100df2c9fdfa19e145a3d1f3b995e2925e6270f02dd13a9d5e79edc0bf7841517d40220722d8c694a21890bb24b82530f7e553371b9123d1e0e8c1ad818fe87c53e3cbb012103a2bfae3cc2b43c7ac5e8ae402e1552b9edca7a2ff73ac1950ca52dae73791e95feffffff0264b40677000000001976a9145026b54aec9036aaf02473481356acb3fe45846a88ac40420f0000000000275107702f646f6d6f62027b7d6d7576a914eed2f5ecba300e6137c3a966d60cab012b490e0188ac00000000",
  "blockhash": "1efbbbe72b0198a68bd3a9f5d349f4bcb5d87c660262a6c6731c37b1cb61a73e",
  "confirmations": 1032707,
  "time": 1531484387,
  "blocktime": 1531484387
}
