{
  "txid": "83747d1e69e264644f425bc2dae3bedca6d72274a0f2f82b00d9a0a70714c2be",
  "hash": "83747d1e69e264644f425bc2dae3bedca6d72274a0f2f82b00d9a0a70714c2be",
  "version": 2,
  "size": 413,
  "vsize": 413,
  "weight": 1652,
  "locktime": 244772,
  "vin": [
    {
      "txid": "59d8a63955615b49b550ca9207ae9c5853898370a37efe8fcb4cfbff7eba989e",
      "vout": 0,
      "scriptSig": {
        "asm": "304402202f16982264f61a1bdd08cf5f5aa620fd761419416aceaf65226ba74a932e8ea50220520d2a8755da0f85c257afeb841fab9692807d177fd4693e0697308f658940ed[ALL] 02d9ce309aa25d552cc1e6e2557e4b91b8ad9d055ff74fc4241e6b5b1039792eae",
        "hex": "47304402202f16982264f61a1bdd08cf5f5aa620fd761419416aceaf65226ba74a932e8ea50220520d2a8755da0f85c257afeb841fab9692807d177fd4693e0697308f658940ed012102d9ce309aa25d552cc1e6e2557e4b91b8ad9d055ff74fc4241e6b5b1039792eae"
      },
      "sequence": 4294967294
    },
    {
      "txid": "a32f38a463b75f2cb9955f5660063e7888f9120b40f27312b65e53fad6a226fd",
      "vout": 1,
      "scriptSig": {
        "asm": "3044022030710158479236b1e8da22cbe5710f0b1b1210fdfa3c68dcb955af8137340db8022064f8f2d2c4047f51f0e62ebe2ee2aac7d3eb574f57f497ad828fb2381234d81e[ALL] 03611ff32dd36a49b75873dc3770c1e5f6a83ea8a4f56fa1fd08400b7686eb4c21",
        "hex": "473044022030710158479236b1e8da22cbe5710f0b1b1210fdfa3c68dcb955af8137340db8022064f8f2d2c4047f51f0e62ebe2ee2aac7d3eb574f57f497ad828fb2381234d81e012103611ff32dd36a49b75873dc3770c1e5f6a83ea8a4f56fa1fd08400b7686eb4c21"
      },
      "sequence": 4294967294
    }
  ],
  "vout": [
    {
      "value": 473277800,
      "n": 0,
      "scriptPubKey": {
        "asm": "OP_DUP OP_HASH160 13f261c11e7471063893a4821331a1bd4496f5fb OP_EQUALVERIFY OP_CHECKSIG",
        "hex": "76a91413f261c11e7471063893a4821331a1bd4496f5fb88ac",
        "reqSigs": 1,
        "type": "pubkeyhash",
        "addresses": [
          "CJHMmfxKEypZd9oF5Ui9cSgWD7eaUC6cGT"
        ]
      }
    },
    {
      "value": 1000000,
      "n": 1,
      "scriptPubKey": {
        "nameOp": {
          "op": "name_update",
          "name": "p/domob",
          "name_encoding": "utf8",
          "value": "{\"g\":{\"mv\":{\"d\":\"u\",\"n\":10}}}",
          "value_encoding": "ascii"
        },
        "asm": "OP_NAME_UPDATE 702f646f6d6f62 7b2267223a7b226d76223a7b2264223a2275222c226e223a31307d7d7d OP_2DROP OP_DROP OP_DUP OP_HASH160 9375d04e6c8a332e0dd06dff3e9c037ac80d31a0 OP_EQUALVERIFY OP_CHECKSIG",
        "hex": "5207702f646f6d6f621d7b2267223a7b226d76223a7b2264223a2275222c226e223a31307d7d7d6d7576a9149375d04e6c8a332e0dd06dff3e9c037ac80d31a088ac",
        "reqSigs": 1,
        "type": "pubkeyhash",
        "addresses": [
          "CVub35ZeaqJajwUxr7ib3sYBfQg19AhKRs"
        ]
      }
    }
  ],
  "hex": "02000000029e98ba7efffb4ccb8ffe7ea370838953589cae0792ca50b5495b615539a6d859000000006a47304402202f16982264f61a1bdd08cf5f5aa620fd761419416aceaf65226ba74a932e8ea50220520d2a8755da0f85c257afeb841fab9692807d177fd4693e0697308f658940ed012102d9ce309aa25d552cc1e6e2557e4b91b8ad9d055ff74fc4241e6b5b1039792eaefefffffffd26a2d6fa535eb61273f2400b12f988783e0660565f95b92c5fb763a4382fa3010000006a473044022030710158479236b1e8da22cbe5710f0b1b1210fdfa3c68dcb955af8137340db8022064f8f2d2c4047f51f0e62ebe2ee2aac7d3eb574f57f497ad828fb2381234d81e012103611ff32dd36a49b75873dc3770c1e5f6a83ea8a4f56fa1fd08400b7686eb4c21feffffff0268a5351c000000001976a91413f261c11e7471063893a4821331a1bd4496f5fb88ac40420f0000000000425207702f646f6d6f621d7b2267223a7b226d76223a7b2264223a2275222c226e223a31307d7d7d6d7576a9149375d04e6c8a332e0dd06dff3e9c037ac80d31a088ac24bc0300",
  "blockhash": "6d8071aa2e91e13004d9cc185e3a51a1975f33f190b171ce3d638ae17fdb1154",
  "confirmations": 787951,
  "time": 1539182355,
  "blocktime": 1539182355
}
