{
  "txid": "bb65bfb6bb0bc032ddf5f086079bd54f44b51192c7dd2aaa96814557b4cedef6",
  "hash": "478b0977178b3b251c059d7fd645d22776928f24d463d58bd952692b94011506",
  "version": 2,
  "size": 397,
  "vsize": 315,
  "weight": 1258,
  "locktime": 1032236,
  "vin": [
    {
      "txid": "885759d86fc931fdc40e5ce2ea8d13d027265ba412cf6f53338ed079e117ecd0",
      "vout": 1,
      "scriptSig": {
        "asm": "0014af22b818ed82241a25db8e0368246739cefff500",
        "hex": "160014af22b818ed82241a25db8e0368246739cefff500"
      },
      "txinwitness": [
        "30440220242ecc2974b06403d2c8082cac3757a66abdf1299896e81037b336d9d2114f60022070ed8076805e32e600d10338a57509bfe662951931d39312bb9121c8cc79987801",
        "02caf14cea42ca04ec16b5a0486e8316f7ff9d1d497f05b6631eeae06a9e93c952"
      ],
      "sequence": 4294967293
    },
    {
      "txid": "885759d86fc931fdc40e5ce2ea8d13d027265ba412cf6f53338ed079e117ecd0",
      "vout": 0,
      "scriptSig": {
        "asm": "304402202b78c45be3876fa92bc5678096fc7a300c0b2eacbd6c63462b5e72634a0d8b34022017dbd5e71b09b2477db5ec9cfa242198d1439efaeae96827d4cc2a09291976e6[ALL] 02c5b65a15c335dede9899ca033a43cc6d4c669b904c344ecfccd6db6c0147226e",
        "hex": "47304402202b78c45be3876fa92bc5678096fc7a300c0b2eacbd6c63462b5e72634a0d8b34022017dbd5e71b09b2477db5ec9cfa242198d1439efaeae96827d4cc2a09291976e6012102c5b65a15c335dede9899ca033a43cc6d4c669b904c344ecfccd6db6c0147226e"
      },
      "sequence": 4294967293
    }
  ],
  "vout": [
    {
      "value": 1000000000,
      "n": 0,
      "scriptPubKey": {
        "asm": "OP_HASH160 0a28089f0e20df40287a050f44c17e46b5415fc7 OP_EQUAL",
        "hex": "a9140a28089f0e20df40287a050f44c17e46b5415fc787",
        "reqSigs": 1,
        "type": "scripthash",
        "addresses": [
          "D64oFmM1YJkNnJeuTDanLbV2fnkmE3RjHc"
        ]
      }
    },
    {
      "value": 982510000,
      "n": 1,
      "scriptPubKey": {
        "asm": "OP_DUP OP_HASH160 cf42e4921cf6b13b2bd3d169b9e94f1447429dfc OP_EQUALVERIFY OP_CHECKSIG",
        "hex": "76a914cf42e4921cf6b13b2bd3d169b9e94f1447429dfc88ac",
        "reqSigs": 1,
        "type": "pubkeyhash",
        "addresses": [
          "CbMnaYgwuPaZXJKsJfaaexpSMKyt1yCfHE"
        ]
      }
    }
  ],
  "hex": "02000000000102d0ec17e179d08e33536fcf12a45b2627d0138deae25c0ec4fd31c96fd85957880100000017160014af22b818ed82241a25db8e0368246739cefff500fdffffffd0ec17e179d08e33536fcf12a45b2627d0138deae25c0ec4fd31c96fd8595788000000006a47304402202b78c45be3876fa92bc5678096fc7a300c0b2eacbd6c63462b5e72634a0d8b34022017dbd5e71b09b2477db5ec9cfa242198d1439efaeae96827d4cc2a09291976e6012102c5b65a15c335dede9899ca033a43cc6d4c669b904c344ecfccd6db6c0147226efdffffff0200ca9a3b0000000017a9140a28089f0e20df40287a050f44c17e46b5415fc787b0e98f3a000000001976a914cf42e4921cf6b13b2bd3d169b9e94f1447429dfc88ac024730440220242ecc2974b06403d2c8082cac3757a66abdf1299896e81037b336d9d2114f60022070ed8076805e32e600d10338a57509bfe662951931d39312bb9121c8cc799878012102caf14cea42ca04ec16b5a0486e8316f7ff9d1d497f05b6631eeae06a9e93c952002cc00f00",
  "blockhash": "83acddd369b88e1a2d1fa506dcb717a1d883e45434d4ce080f10f3630e5ae957",
  "confirmations": 1,
  "time": 1564041243,
  "blocktime": 1564041243
}
